{
  "_format": "hh-sol-artifact-1",
  "contractName": "JunoCrewSBT",
  "sourceName": "contracts/JunoCrewSBT.sol",
  "abi": [
    {
      "inputs": [
        {
          "internalType": "string",
          "name": "uri_",
          "type": "string"
        },
        {
          "internalType": "address",
          "name": "admin",
          "type": "address"
        }
      ],
      "stateMutability": "nonpayable",
      "type": "constructor"
    },
    {
      "inputs": [],
      "name": "AccessControlBadConfirmation",
      "type": "error"
    },
    {
      "inputs": [
        {
          "internalType": "address",
          "name": "account",
          "type": "address"
        },
        {
          "internalType": "bytes32",
          "name": "neededRole",
          "type": "bytes32"
        }
      ],
      "name": "AccessControlUnauthorizedAccount",
      "type": "error"
    },
    {
      "inputs": [
        {
          "internalType": "address",
          "name": "sender",
          "type": "address"
        },
        {
          "internalType": "uint256",
          "name": "balance",
          "type": "uint256"
        },
        {
          "internalType": "uint256",
          "name": "needed",
          "type": "uint256"
        },
        {
          "internalType": "uint256",
          "name": "tokenId",
          "type": "uint256"
        }
      ],
      "name": "ERC1155InsufficientBalance",
      "type": "error"
    },
    {
      "inputs": [
        {
          "internalType": "address",
          "name": "approver",
          "type": "address"
        }
      ],
      "name": "ERC1155InvalidApprover",
      "type": "error"
    },
    {
      "inputs": [
        {
          "internalType": "uint256",
          "name": "idsLength",
          "type": "uint256"
        },
        {
          "internalType": "uint256",
          "name": "valuesLength",
          "type": "uint256"
        }
      ],
      "name": "ERC1155InvalidArrayLength",
      "type": "error"
    },
    {
      "inputs": [
        {
          "internalType": "address",
          "name": "operator",
          "type": "address"
        }
      ],
      "name": "ERC1155InvalidOperator",
      "type": "error"
    },
    {
      "inputs": [
        {
          "internalType": "address",
          "name": "receiver",
          "type": "address"
        }
      ],
      "name": "ERC1155InvalidReceiver",
      "type": "error"
    },
    {
      "inputs": [
        {
          "internalType": "address",
          "name": "sender",
          "type": "address"
        }
      ],
      "name": "ERC1155InvalidSender",
      "type": "error"
    },
    {
      "inputs": [
        {
          "internalType": "address",
          "name": "operator",
          "type": "address"
        },
        {
          "internalType": "address",
          "name": "owner",
          "type": "address"
        }
      ],
      "name": "ERC1155MissingApprovalForAll",
      "type": "error"
    },
    {
      "anonymous": false,
      "inputs": [
        {
          "indexed": true,
          "internalType": "address",
          "name": "account",
          "type": "address"
        },
        {
          "indexed": true,
          "internalType": "address",
          "name": "operator",
          "type": "address"
        },
        {
          "indexed": false,
          "internalType": "bool",
          "name": "approved",
          "type": "bool"
        }
      ],
      "name": "ApprovalForAll",
      "type": "event"
    },
    {
      "anonymous": false,
      "inputs": [
        {
          "indexed": true,
          "internalType": "bytes32",
          "name": "role",
          "type": "bytes32"
        },
        {
          "indexed": true,
          "internalType": "bytes32",
          "name": "previousAdminRole",
          "type": "bytes32"
        },
        {
          "indexed": true,
          "internalType": "bytes32",
          "name": "newAdminRole",
          "type": "bytes32"
        }
      ],
      "name": "RoleAdminChanged",
      "type": "event"
    },
    {
      "anonymous": false,
      "inputs": [
        {
          "indexed": true,
          "internalType": "bytes32",
          "name": "role",
          "type": "bytes32"
        },
        {
          "indexed": true,
          "internalType": "address",
          "name": "account",
          "type": "address"
        },
        {
          "indexed": true,
          "internalType": "address",
          "name": "sender",
          "type": "address"
        }
      ],
      "name": "RoleGranted",
      "type": "event"
    },
    {
      "anonymous": false,
      "inputs": [
        {
          "indexed": true,
          "internalType": "bytes32",
          "name": "role",
          "type": "bytes32"
        },
        {
          "indexed": true,
          "internalType": "address",
          "name": "account",
          "type": "address"
        },
        {
          "indexed": true,
          "internalType": "address",
          "name": "sender",
          "type": "address"
        }
      ],
      "name": "RoleRevoked",
      "type": "event"
    },
    {
      "anonymous": false,
      "inputs": [
        {
          "indexed": true,
          "internalType": "address",
          "name": "operator",
          "type": "address"
        },
        {
          "indexed": true,
          "internalType": "address",
          "name": "from",
          "type": "address"
        },
        {
          "indexed": true,
          "internalType": "address",
          "name": "to",
          "type": "address"
        },
        {
          "indexed": false,
          "internalType": "uint256[]",
          "name": "ids",
          "type": "uint256[]"
        },
        {
          "indexed": false,
          "internalType": "uint256[]",
          "name": "values",
          "type": "uint256[]"
        }
      ],
      "name": "TransferBatch",
      "type": "event"
    },
    {
      "anonymous": false,
      "inputs": [
        {
          "indexed": true,
          "internalType": "address",
          "name": "operator",
          "type": "address"
        },
        {
          "indexed": true,
          "internalType": "address",
          "name": "from",
          "type": "address"
        },
        {
          "indexed": true,
          "internalType": "address",
          "name": "to",
          "type": "address"
        },
        {
          "indexed": false,
          "internalType": "uint256",
          "name": "id",
          "type": "uint256"
        },
        {
          "indexed": false,
          "internalType": "uint256",
          "name": "value",
          "type": "uint256"
        }
      ],
      "name": "TransferSingle",
      "type": "event"
    },
    {
      "anonymous": false,
      "inputs": [
        {
          "indexed": false,
          "internalType": "string",
          "name": "value",
          "type": "string"
        },
        {
          "indexed": true,
          "internalType": "uint256",
          "name": "id",
          "type": "uint256"
        }
      ],
      "name": "URI",
      "type": "event"
    },
    {
      "inputs": [],
      "name": "DECKHAND",
      "outputs": [
        {
          "internalType": "uint256",
          "name": "",
          "type": "uint256"
        }
      ],
      "stateMutability": "view",
      "type": "function"
    },
    {
      "inputs": [],
      "name": "DEFAULT_ADMIN_ROLE",
      "outputs": [
        {
          "internalType": "bytes32",
          "name": "",
          "type": "bytes32"
        }
      ],
      "stateMutability": "view",
      "type": "function"
    },
    {
      "inputs": [],
      "name": "GUEST",
      "outputs": [
        {
          "internalType": "uint256",
          "name": "",
          "type": "uint256"
        }
      ],
      "stateMutability": "view",
      "type": "function"
    },
    {
      "inputs": [],
      "name": "MINTER_ROLE",
      "outputs": [
        {
          "internalType": "bytes32",
          "name": "",
          "type": "bytes32"
        }
      ],
      "stateMutability": "view",
      "type": "function"
    },
    {
      "inputs": [],
      "name": "SKIPPER",
      "outputs": [
        {
          "internalType": "uint256",
          "name": "",
          "type": "uint256"
        }
      ],
      "stateMutability": "view",
      "type": "function"
    },
    {
      "inputs": [
        {
          "internalType": "address",
          "name": "account",
          "type": "address"
        },
        {
          "internalType": "uint256",
          "name": "id",
          "type": "uint256"
        }
      ],
      "name": "balanceOf",
      "outputs": [
        {
          "internalType": "uint256",
          "name": "",
          "type": "uint256"
        }
      ],
      "stateMutability": "view",
      "type": "function"
    },
    {
      "inputs": [
        {
          "internalType": "address[]",
          "name": "accounts",
          "type": "address[]"
        },
        {
          "internalType": "uint256[]",
          "name": "ids",
          "type": "uint256[]"
        }
      ],
      "name": "balanceOfBatch",
      "outputs": [
        {
          "internalType": "uint256[]",
          "name": "",
          "type": "uint256[]"
        }
      ],
      "stateMutability": "view",
      "type": "function"
    },
    {
      "inputs": [
        {
          "internalType": "address",
          "name": "account",
          "type": "address"
        },
        {
          "internalType": "uint256",
          "name": "id",
          "type": "uint256"
        },
        {
          "internalType": "uint256",
          "name": "value",
          "type": "uint256"
        }
      ],
      "name": "burn",
      "outputs": [],
      "stateMutability": "nonpayable",
      "type": "function"
    },
    {
      "inputs": [
        {
          "internalType": "address",
          "name": "account",
          "type": "address"
        },
        {
          "internalType": "uint256[]",
          "name": "ids",
          "type": "uint256[]"
        },
        {
          "internalType": "uint256[]",
          "name": "values",
          "type": "uint256[]"
        }
      ],
      "name": "burnBatch",
      "outputs": [],
      "stateMutability": "nonpayable",
      "type": "function"
    },
    {
      "inputs": [
        {
          "internalType": "bytes32",
          "name": "role",
          "type": "bytes32"
        }
      ],
      "name": "getRoleAdmin",
      "outputs": [
        {
          "internalType": "bytes32",
          "name": "",
          "type": "bytes32"
        }
      ],
      "stateMutability": "view",
      "type": "function"
    },
    {
      "inputs": [
        {
          "internalType": "bytes32",
          "name": "role",
          "type": "bytes32"
        },
        {
          "internalType": "address",
          "name": "account",
          "type": "address"
        }
      ],
      "name": "grantRole",
      "outputs": [],
      "stateMutability": "nonpayable",
      "type": "function"
    },
    {
      "inputs": [
        {
          "internalType": "bytes32",
          "name": "role",
          "type": "bytes32"
        },
        {
          "internalType": "address",
          "name": "account",
          "type": "address"
        }
      ],
      "name": "hasRole",
      "outputs": [
        {
          "internalType": "bool",
          "name": "",
          "type": "bool"
        }
      ],
      "stateMutability": "view",
      "type": "function"
    },
    {
      "inputs": [
        {
          "internalType": "address",
          "name": "account",
          "type": "address"
        },
        {
          "internalType": "address",
          "name": "operator",
          "type": "address"
        }
      ],
      "name": "isApprovedForAll",
      "outputs": [
        {
          "internalType": "bool",
          "name": "",
          "type": "bool"
        }
      ],
      "stateMutability": "view",
      "type": "function"
    },
    {
      "inputs": [
        {
          "internalType": "address",
          "name": "account",
          "type": "address"
        },
        {
          "internalType": "uint256",
          "name": "id",
          "type": "uint256"
        },
        {
          "internalType": "uint256",
          "name": "amount",
          "type": "uint256"
        },
        {
          "internalType": "bytes",
          "name": "data",
          "type": "bytes"
        }
      ],
      "name": "mint",
      "outputs": [],
      "stateMutability": "nonpayable",
      "type": "function"
    },
    {
      "inputs": [
        {
          "internalType": "address",
          "name": "to",
          "type": "address"
        },
        {
          "internalType": "uint256[]",
          "name": "ids",
          "type": "uint256[]"
        },
        {
          "internalType": "uint256[]",
          "name": "amounts",
          "type": "uint256[]"
        },
        {
          "internalType": "bytes",
          "name": "data",
          "type": "bytes"
        }
      ],
      "name": "mintBatch",
      "outputs": [],
      "stateMutability": "nonpayable",
      "type": "function"
    },
    {
      "inputs": [
        {
          "internalType": "bytes32",
          "name": "role",
          "type": "bytes32"
        },
        {
          "internalType": "address",
          "name": "callerConfirmation",
          "type": "address"
        }
      ],
      "name": "renounceRole",
      "outputs": [],
      "stateMutability": "nonpayable",
      "type": "function"
    },
    {
      "inputs": [
        {
          "internalType": "bytes32",
          "name": "role",
          "type": "bytes32"
        },
        {
          "internalType": "address",
          "name": "account",
          "type": "address"
        }
      ],
      "name": "revokeRole",
      "outputs": [],
      "stateMutability": "nonpayable",
      "type": "function"
    },
    {
      "inputs": [
        {
          "internalType": "address",
          "name": "from",
          "type": "address"
        },
        {
          "internalType": "address",
          "name": "to",
          "type": "address"
        },
        {
          "internalType": "uint256[]",
          "name": "ids",
          "type": "uint256[]"
        },
        {
          "internalType": "uint256[]",
          "name": "values",
          "type": "uint256[]"
        },
        {
          "internalType": "bytes",
          "name": "data",
          "type": "bytes"
        }
      ],
      "name": "safeBatchTransferFrom",
      "outputs": [],
      "stateMutability": "nonpayable",
      "type": "function"
    },
    {
      "inputs": [
        {
          "internalType": "address",
          "name": "from",
          "type": "address"
        },
        {
          "internalType": "address",
          "name": "to",
          "type": "address"
        },
        {
          "internalType": "uint256",
          "name": "id",
          "type": "uint256"
        },
        {
          "internalType": "uint256",
          "name": "value",
          "type": "uint256"
        },
        {
          "internalType": "bytes",
          "name": "data",
          "type": "bytes"
        }
      ],
      "name": "safeTransferFrom",
      "outputs": [],
      "stateMutability": "nonpayable",
      "type": "function"
    },
    {
      "inputs": [
        {
          "internalType": "address",
          "name": "operator",
          "type": "address"
        },
        {
          "internalType": "bool",
          "name": "approved",
          "type": "bool"
        }
      ],
      "name": "setApprovalForAll",
      "outputs": [],
      "stateMutability": "nonpayable",
      "type": "function"
    },
    {
      "inputs": [
        {
          "internalType": "string",
          "name": "newuri",
          "type": "string"
        }
      ],
      "name": "setURI",
      "outputs": [],
      "stateMutability": "nonpayable",
      "type": "function"
    },
    {
      "inputs": [
        {
          "internalType": "bytes4",
          "name": "interfaceId",
          "type": "bytes4"
        }
      ],
      "name": "supportsInterface",
      "outputs": [
        {
          "internalType": "bool",
          "name": "",
          "type": "bool"
        }
      ],
      "stateMutability": "view",
      "type": "function"
    },
    {
      "inputs": [
        {
          "internalType": "uint256",
          "name": "",
          "type": "uint256"
        }
      ],
      "name": "uri",
      "outputs": [
        {
          "internalType": "string",
          "name": "",
          "type": "string"
        }
      ],
      "stateMutability": "view",
      "type": "function"
    }
  ],
  "bytecode": "0x60806040523480156200001157600080fd5b5060405162003ada38038062003ada83398181016040528101906200003791906200041f565b8162000049816200009b60201b60201c565b506200005f6000801b82620000b060201b60201c565b50620000927f9f2df0fed2c77648de5860a4cc508cd0818c85b8b8a1ab4ceeef8d981c8956a682620000b060201b60201c565b505050620007b7565b8060029081620000ac9190620006d0565b5050565b6000620000c48383620001b460201b60201c565b620001a95760016003600085815260200190815260200160002060000160008473ffffffffffffffffffffffffffffffffffffffff1673ffffffffffffffffffffffffffffffffffffffff16815260200190815260200160002060006101000a81548160ff021916908315150217905550620001456200021f60201b60201c565b73ffffffffffffffffffffffffffffffffffffffff168273ffffffffffffffffffffffffffffffffffffffff16847f2f8788117e7eff1d82e926ec794901d17c78024a50270940304540a733656f0d60405160405180910390a460019050620001ae565b600090505b92915050565b60006003600084815260200190815260200160002060000160008373ffffffffffffffffffffffffffffffffffffffff1673ffffffffffffffffffffffffffffffffffffffff16815260200190815260200160002060009054906101000a900460ff16905092915050565b600033905090565b6000604051905090565b600080fd5b600080fd5b600080fd5b600080fd5b6000601f19601f8301169050919050565b7f4e487b7100000000000000000000000000000000000000000000000000000000600052604160045260246000fd5b620002908262000245565b810181811067ffffffffffffffff82111715620002b257620002b162000256565b5b80604052505050565b6000620002c762000227565b9050620002d5828262000285565b919050565b600067ffffffffffffffff821115620002f857620002f762000256565b5b620003038262000245565b9050602081019050919050565b60005b838110156200033057808201518184015260208101905062000313565b60008484015250505050565b6000620003536200034d84620002da565b620002bb565b90508281526020810184848401111562000372576200037162000240565b5b6200037f84828562000310565b509392505050565b600082601f8301126200039f576200039e6200023b565b5b8151620003b18482602086016200033c565b91505092915050565b600073ffffffffffffffffffffffffffffffffffffffff82169050919050565b6000620003e782620003ba565b9050919050565b620003f981620003da565b81146200040557600080fd5b50565b6000815190506200041981620003ee565b92915050565b6000806040838503121562000439576200043862000231565b5b600083015167ffffffffffffffff8111156200045a576200045962000236565b5b620004688582860162000387565b92505060206200047b8582860162000408565b9150509250929050565b600081519050919050565b7f4e487b7100000000000000000000000000000000000000000000000000000000600052602260045260246000fd5b60006002820490506001821680620004d857607f821691505b602082108103620004ee57620004ed62000490565b5b50919050565b60008190508160005260206000209050919050565b60006020601f8301049050919050565b600082821b905092915050565b600060088302620005587fffffffffffffffffffffffffffffffffffffffffffffffffffffffffffffffff8262000519565b62000564868362000519565b95508019841693508086168417925050509392505050565b6000819050919050565b6000819050919050565b6000620005b1620005ab620005a5846200057c565b62000586565b6200057c565b9050919050565b6000819050919050565b620005cd8362000590565b620005e5620005dc82620005b8565b84845462000526565b825550505050565b600090565b620005fc620005ed565b62000609818484620005c2565b505050565b5b81811015620006315762000625600082620005f2565b6001810190506200060f565b5050565b601f82111562000680576200064a81620004f4565b620006558462000509565b8101602085101562000665578190505b6200067d620006748562000509565b8301826200060e565b50505b505050565b600082821c905092915050565b6000620006a56000198460080262000685565b1980831691505092915050565b6000620006c0838362000692565b9150826002028217905092915050565b620006db8262000485565b67ffffffffffffffff811115620006f757620006f662000256565b5b620007038254620004bf565b6200071082828562000635565b600060209050601f83116001811462000748576000841562000733578287015190505b6200073f8582620006b2565b865550620007af565b601f1984166200075886620004f4565b60005b8281101562000782578489015182556001820191506020850194506020810190506200075b565b86831015620007a257848901516200079e601f89168262000692565b8355505b6001600288020188555050505b505050505050565b61331380620007c76000396000f3fe608060405234801561001057600080fd5b506004361061014c5760003560e01c80634e1273f4116100c3578063d53913931161007c578063d5391393146103ab578063d547741f146103c9578063e985e9c5146103e5578063ec6635f014610415578063f242432a14610433578063f5298aca1461044f5761014c565b80634e1273f4146102d95780636b20c45414610309578063731133e91461032557806391d1485414610341578063a217fddf14610371578063a22cb4651461038f5761014c565b80631f7fdffa116101155780631f7fdffa1461021b578063248a9ca3146102375780632eb2c2d6146102675780632f2ff15d1461028357806336568abe1461029f57806342d141a1146102bb5761014c565b8062fdd58e1461015157806301ffc9a71461018157806302fe5305146101b15780630e89341c146101cd5780631db6ab7e146101fd575b600080fd5b61016b60048036038101906101669190612018565b61046b565b6040516101789190612067565b60405180910390f35b61019b600480360381019061019691906120da565b6104c5565b6040516101a89190612122565b60405180910390f35b6101cb60048036038101906101c69190612283565b6104d7565b005b6101e760048036038101906101e291906122cc565b6104f1565b6040516101f49190612378565b60405180910390f35b610205610585565b6040516102129190612067565b60405180910390f35b61023560048036038101906102309190612503565b61058a565b005b610251600480360381019061024c91906125f4565b6105c7565b60405161025e9190612630565b60405180910390f35b610281600480360381019061027c919061264b565b6105e7565b005b61029d6004803603810190610298919061271a565b6106a1565b005b6102b960048036038101906102b4919061271a565b6106c3565b005b6102c361073e565b6040516102d09190612067565b60405180910390f35b6102f360048036038101906102ee919061281d565b610743565b6040516103009190612953565b60405180910390f35b610323600480360381019061031e9190612975565b610852565b005b61033f600480360381019061033a9190612a00565b6108fe565b005b61035b6004803603810190610356919061271a565b61093b565b6040516103689190612122565b60405180910390f35b6103796109a6565b6040516103869190612630565b60405180910390f35b6103a960048036038101906103a49190612aaf565b6109ad565b005b6103b36109c3565b6040516103c09190612630565b60405180910390f35b6103e360048036038101906103de919061271a565b6109e7565b005b6103ff60048036038101906103fa9190612aef565b610a09565b60405161040c9190612122565b60405180910390f35b61041d610a9d565b60405161042a9190612067565b60405180910390f35b61044d60048036038101906104489190612b2f565b610aa2565b005b61046960048036038101906104649190612bc6565b610b5c565b005b600080600083815260200190815260200160002060008473ffffffffffffffffffffffffffffffffffffffff1673ffffffffffffffffffffffffffffffffffffffff16815260200190815260200160002054905092915050565b60006104d082610c08565b9050919050565b6000801b6104e481610c82565b6104ed82610c96565b5050565b60606002805461050090612c48565b80601f016020809104026020016040519081016040528092919081815260200182805461052c90612c48565b80156105795780601f1061054e57610100808354040283529160200191610579565b820191906000526020600020905b81548152906001019060200180831161055c57829003601f168201915b50505050509050919050565b600181565b7f9f2df0fed2c77648de5860a4cc508cd0818c85b8b8a1ab4ceeef8d981c8956a66105b481610c82565b6105c085858585610ca9565b5050505050565b600060036000838152602001908152602001600020600101549050919050565b600073ffffffffffffffffffffffffffffffffffffffff168573ffffffffffffffffffffffffffffffffffffffff16148061064e5750600073ffffffffffffffffffffffffffffffffffffffff168473ffffffffffffffffffffffffffffffffffffffff16145b61068d576040517f08c379a000000000000000000000000000000000000000000000000000000000815260040161068490612ceb565b60405180910390fd5b61069a8585858585610d2f565b5050505050565b6106aa826105c7565b6106b381610c82565b6106bd8383610dd7565b50505050565b6106cb610ec9565b73ffffffffffffffffffffffffffffffffffffffff168173ffffffffffffffffffffffffffffffffffffffff161461072f576040517f6697b23200000000000000000000000000000000000000000000000000000000815260040160405180910390fd5b6107398282610ed1565b505050565b600081565b6060815183511461078f57815183516040517f5b059991000000000000000000000000000000000000000000000000000000008152600401610786929190612d0b565b60405180910390fd5b6000835167ffffffffffffffff8111156107ac576107ab612158565b5b6040519080825280602002602001820160405280156107da5781602001602082028036833780820191505090505b50905060005b8451811015610847576108176107ff8287610fc490919063ffffffff16565b6108128387610fd890919063ffffffff16565b61046b565b82828151811061082a57610829612d34565b5b6020026020010181815250508061084090612d92565b90506107e0565b508091505092915050565b61085a610ec9565b73ffffffffffffffffffffffffffffffffffffffff168373ffffffffffffffffffffffffffffffffffffffff16141580156108a357506108a18361089c610ec9565b610a09565b155b156108ee576108b0610ec9565b836040517fe237d9220000000000000000000000000000000000000000000000000000000081526004016108e5929190612de9565b60405180910390fd5b6108f9838383610fec565b505050565b7f9f2df0fed2c77648de5860a4cc508cd0818c85b8b8a1ab4ceeef8d981c8956a661092881610c82565b61093485858585611080565b5050505050565b60006003600084815260200190815260200160002060000160008373ffffffffffffffffffffffffffffffffffffffff1673ffffffffffffffffffffffffffffffffffffffff16815260200190815260200160002060009054906101000a900460ff16905092915050565b6000801b81565b6109bf6109b8610ec9565b8383611119565b5050565b7f9f2df0fed2c77648de5860a4cc508cd0818c85b8b8a1ab4ceeef8d981c8956a681565b6109f0826105c7565b6109f981610c82565b610a038383610ed1565b50505050565b6000600160008473ffffffffffffffffffffffffffffffffffffffff1673ffffffffffffffffffffffffffffffffffffffff16815260200190815260200160002060008373ffffffffffffffffffffffffffffffffffffffff1673ffffffffffffffffffffffffffffffffffffffff16815260200190815260200160002060009054906101000a900460ff16905092915050565b600281565b600073ffffffffffffffffffffffffffffffffffffffff168573ffffffffffffffffffffffffffffffffffffffff161480610b095750600073ffffffffffffffffffffffffffffffffffffffff168473ffffffffffffffffffffffffffffffffffffffff16145b610b48576040517f08c379a0000000000000000000000000000000000000000000000000000000008152600401610b3f90612ceb565b60405180910390fd5b610b558585858585611289565b5050505050565b610b64610ec9565b73ffffffffffffffffffffffffffffffffffffffff168373ffffffffffffffffffffffffffffffffffffffff1614158015610bad5750610bab83610ba6610ec9565b610a09565b155b15610bf857610bba610ec9565b836040517fe237d922000000000000000000000000000000000000000000000000000000008152600401610bef929190612de9565b60405180910390fd5b610c03838383611331565b505050565b60007f7965db0b000000000000000000000000000000000000000000000000000000007bffffffffffffffffffffffffffffffffffffffffffffffffffffffff1916827bffffffffffffffffffffffffffffffffffffffffffffffffffffffff19161480610c7b5750610c7a826113d8565b5b9050919050565b610c9381610c8e610ec9565b6114ba565b50565b8060029081610ca59190612fbe565b5050565b600073ffffffffffffffffffffffffffffffffffffffff168473ffffffffffffffffffffffffffffffffffffffff1603610d1b5760006040517f57f447ce000000000000000000000000000000000000000000000000000000008152600401610d129190613090565b60405180910390fd5b610d2960008585858561150b565b50505050565b6000610d39610ec9565b90508073ffffffffffffffffffffffffffffffffffffffff168673ffffffffffffffffffffffffffffffffffffffff1614158015610d7e5750610d7c8682610a09565b155b15610dc25780866040517fe237d922000000000000000000000000000000000000000000000000000000008152600401610db9929190612de9565b60405180910390fd5b610dcf86868686866115bd565b505050505050565b6000610de3838361093b565b610ebe5760016003600085815260200190815260200160002060000160008473ffffffffffffffffffffffffffffffffffffffff1673ffffffffffffffffffffffffffffffffffffffff16815260200190815260200160002060006101000a81548160ff021916908315150217905550610e5b610ec9565b73ffffffffffffffffffffffffffffffffffffffff168273ffffffffffffffffffffffffffffffffffffffff16847f2f8788117e7eff1d82e926ec794901d17c78024a50270940304540a733656f0d60405160405180910390a460019050610ec3565b600090505b92915050565b600033905090565b6000610edd838361093b565b15610fb95760006003600085815260200190815260200160002060000160008473ffffffffffffffffffffffffffffffffffffffff1673ffffffffffffffffffffffffffffffffffffffff16815260200190815260200160002060006101000a81548160ff021916908315150217905550610f56610ec9565b73ffffffffffffffffffffffffffffffffffffffff168273ffffffffffffffffffffffffffffffffffffffff16847ff6391f5c32d9c69d2a47ea670b442974b53935d1edc7fd64eb21e047a839171b60405160405180910390a460019050610fbe565b600090505b92915050565b600060208202602084010151905092915050565b600060208202602084010151905092915050565b600073ffffffffffffffffffffffffffffffffffffffff168373ffffffffffffffffffffffffffffffffffffffff160361105e5760006040517f01a835140000000000000000000000000000000000000000000000000000000081526004016110559190613090565b60405180910390fd5b61107b83600084846040518060200160405280600081525061150b565b505050565b600073ffffffffffffffffffffffffffffffffffffffff168473ffffffffffffffffffffffffffffffffffffffff16036110f25760006040517f57f447ce0000000000000000000000000000000000000000000000000000000081526004016110e99190613090565b60405180910390fd5b6000806110ff85856116b5565b9150915061111160008784848761150b565b505050505050565b600073ffffffffffffffffffffffffffffffffffffffff168273ffffffffffffffffffffffffffffffffffffffff160361118b5760006040517fced3e1000000000000000000000000000000000000000000000000000000000081526004016111829190613090565b60405180910390fd5b80600160008573ffffffffffffffffffffffffffffffffffffffff1673ffffffffffffffffffffffffffffffffffffffff16815260200190815260200160002060008473ffffffffffffffffffffffffffffffffffffffff1673ffffffffffffffffffffffffffffffffffffffff16815260200190815260200160002060006101000a81548160ff0219169083151502179055508173ffffffffffffffffffffffffffffffffffffffff168373ffffffffffffffffffffffffffffffffffffffff167f17307eab39ab6107e8899845ad3d59bd9653f200f220920489ca2b5937696c318360405161127c9190612122565b60405180910390a3505050565b6000611293610ec9565b90508073ffffffffffffffffffffffffffffffffffffffff168673ffffffffffffffffffffffffffffffffffffffff16141580156112d857506112d68682610a09565b155b1561131c5780866040517fe237d922000000000000000000000000000000000000000000000000000000008152600401611313929190612de9565b60405180910390fd5b61132986868686866116e5565b505050505050565b600073ffffffffffffffffffffffffffffffffffffffff168373ffffffffffffffffffffffffffffffffffffffff16036113a35760006040517f01a8351400000000000000000000000000000000000000000000000000000000815260040161139a9190613090565b60405180910390fd5b6000806113b084846116b5565b915091506113d185600084846040518060200160405280600081525061150b565b5050505050565b60007fd9b67a26000000000000000000000000000000000000000000000000000000007bffffffffffffffffffffffffffffffffffffffffffffffffffffffff1916827bffffffffffffffffffffffffffffffffffffffffffffffffffffffff191614806114a357507f0e89341c000000000000000000000000000000000000000000000000000000007bffffffffffffffffffffffffffffffffffffffffffffffffffffffff1916827bffffffffffffffffffffffffffffffffffffffffffffffffffffffff1916145b806114b357506114b2826117f0565b5b9050919050565b6114c4828261093b565b6115075780826040517fe2517d3f0000000000000000000000000000000000000000000000000000000081526004016114fe9291906130ab565b60405180910390fd5b5050565b6115178585858561185a565b600073ffffffffffffffffffffffffffffffffffffffff168473ffffffffffffffffffffffffffffffffffffffff16146115b6576000611555610ec9565b905060018451036115a5576000611576600086610fd890919063ffffffff16565b9050600061158e600086610fd890919063ffffffff16565b905061159e838989858589611c08565b50506115b4565b6115b3818787878787611dbc565b5b505b5050505050565b600073ffffffffffffffffffffffffffffffffffffffff168473ffffffffffffffffffffffffffffffffffffffff160361162f5760006040517f57f447ce0000000000000000000000000000000000000000000000000000000081526004016116269190613090565b60405180910390fd5b600073ffffffffffffffffffffffffffffffffffffffff168573ffffffffffffffffffffffffffffffffffffffff16036116a15760006040517f01a835140000000000000000000000000000000000000000000000000000000081526004016116989190613090565b60405180910390fd5b6116ae858585858561150b565b5050505050565b60608060405191506001825283602083015260408201905060018152826020820152604081016040529250929050565b600073ffffffffffffffffffffffffffffffffffffffff168473ffffffffffffffffffffffffffffffffffffffff16036117575760006040517f57f447ce00000000000000000000000000000000000000000000000000000000815260040161174e9190613090565b60405180910390fd5b600073ffffffffffffffffffffffffffffffffffffffff168573ffffffffffffffffffffffffffffffffffffffff16036117c95760006040517f01a835140000000000000000000000000000000000000000000000000000000081526004016117c09190613090565b60405180910390fd5b6000806117d685856116b5565b915091506117e7878784848761150b565b50505050505050565b60007f01ffc9a7000000000000000000000000000000000000000000000000000000007bffffffffffffffffffffffffffffffffffffffffffffffffffffffff1916827bffffffffffffffffffffffffffffffffffffffffffffffffffffffff1916149050919050565b80518251146118a457815181516040517f5b05999100000000000000000000000000000000000000000000000000000000815260040161189b929190612d0b565b60405180910390fd5b60006118ae610ec9565b905060005b8351811015611ac35760006118d18286610fd890919063ffffffff16565b905060006118e88386610fd890919063ffffffff16565b9050600073ffffffffffffffffffffffffffffffffffffffff168873ffffffffffffffffffffffffffffffffffffffff1614611a1557600080600084815260200190815260200160002060008a73ffffffffffffffffffffffffffffffffffffffff1673ffffffffffffffffffffffffffffffffffffffff168152602001908152602001600020549050818110156119bd57888183856040517f03dee4c50000000000000000000000000000000000000000000000000000000081526004016119b494939291906130d4565b60405180910390fd5b81810360008085815260200190815260200160002060008b73ffffffffffffffffffffffffffffffffffffffff1673ffffffffffffffffffffffffffffffffffffffff16815260200190815260200160002081905550505b600073ffffffffffffffffffffffffffffffffffffffff168773ffffffffffffffffffffffffffffffffffffffff1614611ab0578060008084815260200190815260200160002060008973ffffffffffffffffffffffffffffffffffffffff1673ffffffffffffffffffffffffffffffffffffffff1681526020019081526020016000206000828254611aa89190613119565b925050819055505b505080611abc90612d92565b90506118b3565b506001835103611b82576000611ae3600085610fd890919063ffffffff16565b90506000611afb600085610fd890919063ffffffff16565b90508573ffffffffffffffffffffffffffffffffffffffff168773ffffffffffffffffffffffffffffffffffffffff168473ffffffffffffffffffffffffffffffffffffffff167fc3d58168c5ae7397731d063d5bbf3d657854427343f4c083240f7aacaa2d0f628585604051611b73929190612d0b565b60405180910390a45050611c01565b8373ffffffffffffffffffffffffffffffffffffffff168573ffffffffffffffffffffffffffffffffffffffff168273ffffffffffffffffffffffffffffffffffffffff167f4a39dc06d4c0dbc64b70af90fd698a233a518aa5d07e595d983b8c0526c8f7fb8686604051611bf892919061314d565b60405180910390a45b5050505050565b60008473ffffffffffffffffffffffffffffffffffffffff163b1115611db4578373ffffffffffffffffffffffffffffffffffffffff1663f23a6e6187878686866040518663ffffffff1660e01b8152600401611c699594939291906131d9565b6020604051808303816000875af1925050508015611ca557506040513d601f19601f82011682018060405250810190611ca29190613248565b60015b611d29573d8060008114611cd5576040519150601f19603f3d011682016040523d82523d6000602084013e611cda565b606091505b506000815103611d2157846040517f57f447ce000000000000000000000000000000000000000000000000000000008152600401611d189190613090565b60405180910390fd5b805160208201fd5b63f23a6e6160e01b7bffffffffffffffffffffffffffffffffffffffffffffffffffffffff1916817bffffffffffffffffffffffffffffffffffffffffffffffffffffffff191614611db257846040517f57f447ce000000000000000000000000000000000000000000000000000000008152600401611da99190613090565b60405180910390fd5b505b505050505050565b60008473ffffffffffffffffffffffffffffffffffffffff163b1115611f68578373ffffffffffffffffffffffffffffffffffffffff1663bc197c8187878686866040518663ffffffff1660e01b8152600401611e1d959493929190613275565b6020604051808303816000875af1925050508015611e5957506040513d601f19601f82011682018060405250810190611e569190613248565b60015b611edd573d8060008114611e89576040519150601f19603f3d011682016040523d82523d6000602084013e611e8e565b606091505b506000815103611ed557846040517f57f447ce000000000000000000000000000000000000000000000000000000008152600401611ecc9190613090565b60405180910390fd5b805160208201fd5b63bc197c8160e01b7bffffffffffffffffffffffffffffffffffffffffffffffffffffffff1916817bffffffffffffffffffffffffffffffffffffffffffffffffffffffff191614611f6657846040517f57f447ce000000000000000000000000000000000000000000000000000000008152600401611f5d9190613090565b60405180910390fd5b505b505050505050565b6000604051905090565b600080fd5b600080fd5b600073ffffffffffffffffffffffffffffffffffffffff82169050919050565b6000611faf82611f84565b9050919050565b611fbf81611fa4565b8114611fca57600080fd5b50565b600081359050611fdc81611fb6565b92915050565b6000819050919050565b611ff581611fe2565b811461200057600080fd5b50565b60008135905061201281611fec565b92915050565b6000806040838503121561202f5761202e611f7a565b5b600061203d85828601611fcd565b925050602061204e85828601612003565b9150509250929050565b61206181611fe2565b82525050565b600060208201905061207c6000830184612058565b92915050565b60007fffffffff0000000000000000000000000000000000000000000000000000000082169050919050565b6120b781612082565b81146120c257600080fd5b50565b6000813590506120d4816120ae565b92915050565b6000602082840312156120f0576120ef611f7a565b5b60006120fe848285016120c5565b91505092915050565b60008115159050919050565b61211c81612107565b82525050565b60006020820190506121376000830184612113565b92915050565b600080fd5b600080fd5b6000601f19601f8301169050919050565b7f4e487b7100000000000000000000000000000000000000000000000000000000600052604160045260246000fd5b61219082612147565b810181811067ffffffffffffffff821117156121af576121ae612158565b5b80604052505050565b60006121c2611f70565b90506121ce8282612187565b919050565b600067ffffffffffffffff8211156121ee576121ed612158565b5b6121f782612147565b9050602081019050919050565b82818337600083830152505050565b6000612226612221846121d3565b6121b8565b90508281526020810184848401111561224257612241612142565b5b61224d848285612204565b509392505050565b600082601f83011261226a5761226961213d565b5b813561227a848260208601612213565b91505092915050565b60006020828403121561229957612298611f7a565b5b600082013567ffffffffffffffff8111156122b7576122b6611f7f565b5b6122c384828501612255565b91505092915050565b6000602082840312156122e2576122e1611f7a565b5b60006122f084828501612003565b91505092915050565b600081519050919050565b600082825260208201905092915050565b60005b83811015612333578082015181840152602081019050612318565b60008484015250505050565b600061234a826122f9565b6123548185612304565b9350612364818560208601612315565b61236d81612147565b840191505092915050565b60006020820190508181036000830152612392818461233f565b905092915050565b600067ffffffffffffffff8211156123b5576123b4612158565b5b602082029050602081019050919050565b600080fd5b60006123de6123d98461239a565b6121b8565b90508083825260208201905060208402830185811115612401576124006123c6565b5b835b8181101561242a57806124168882612003565b845260208401935050602081019050612403565b5050509392505050565b600082601f8301126124495761244861213d565b5b81356124598482602086016123cb565b91505092915050565b600067ffffffffffffffff82111561247d5761247c612158565b5b61248682612147565b9050602081019050919050565b60006124a66124a184612462565b6121b8565b9050828152602081018484840111156124c2576124c1612142565b5b6124cd848285612204565b509392505050565b600082601f8301126124ea576124e961213d565b5b81356124fa848260208601612493565b91505092915050565b6000806000806080858703121561251d5761251c611f7a565b5b600061252b87828801611fcd565b945050602085013567ffffffffffffffff81111561254c5761254b611f7f565b5b61255887828801612434565b935050604085013567ffffffffffffffff81111561257957612578611f7f565b5b61258587828801612434565b925050606085013567ffffffffffffffff8111156125a6576125a5611f7f565b5b6125b2878288016124d5565b91505092959194509250565b6000819050919050565b6125d1816125be565b81146125dc57600080fd5b50565b6000813590506125ee816125c8565b92915050565b60006020828403121561260a57612609611f7a565b5b6000612618848285016125df565b91505092915050565b61262a816125be565b82525050565b60006020820190506126456000830184612621565b92915050565b600080600080600060a0868803121561266757612666611f7a565b5b600061267588828901611fcd565b955050602061268688828901611fcd565b945050604086013567ffffffffffffffff8111156126a7576126a6611f7f565b5b6126b388828901612434565b935050606086013567ffffffffffffffff8111156126d4576126d3611f7f565b5b6126e088828901612434565b925050608086013567ffffffffffffffff81111561270157612700611f7f565b5b61270d888289016124d5565b9150509295509295909350565b6000806040838503121561273157612730611f7a565b5b600061273f858286016125df565b925050602061275085828601611fcd565b9150509250929050565b600067ffffffffffffffff82111561277557612774612158565b5b602082029050602081019050919050565b60006127996127948461275a565b6121b8565b905080838252602082019050602084028301858111156127bc576127bb6123c6565b5b835b818110156127e557806127d18882611fcd565b8452602084019350506020810190506127be565b5050509392505050565b600082601f8301126128045761280361213d565b5b8135612814848260208601612786565b91505092915050565b6000806040838503121561283457612833611f7a565b5b600083013567ffffffffffffffff81111561285257612851611f7f565b5b61285e858286016127ef565b925050602083013567ffffffffffffffff81111561287f5761287e611f7f565b5b61288b85828601612434565b9150509250929050565b600081519050919050565b600082825260208201905092915050565b6000819050602082019050919050565b6128ca81611fe2565b82525050565b60006128dc83836128c1565b60208301905092915050565b6000602082019050919050565b600061290082612895565b61290a81856128a0565b9350612915836128b1565b8060005b8381101561294657815161292d88826128d0565b9750612938836128e8565b925050600181019050612919565b5085935050505092915050565b6000602082019050818103600083015261296d81846128f5565b905092915050565b60008060006060848603121561298e5761298d611f7a565b5b600061299c86828701611fcd565b935050602084013567ffffffffffffffff8111156129bd576129bc611f7f565b5b6129c986828701612434565b925050604084013567ffffffffffffffff8111156129ea576129e9611f7f565b5b6129f686828701612434565b9150509250925092565b60008060008060808587031215612a1a57612a19611f7a565b5b6000612a2887828801611fcd565b9450506020612a3987828801612003565b9350506040612a4a87828801612003565b925050606085013567ffffffffffffffff811115612a6b57612a6a611f7f565b5b612a77878288016124d5565b91505092959194509250565b612a8c81612107565b8114612a9757600080fd5b50565b600081359050612aa981612a83565b92915050565b60008060408385031215612ac657612ac5611f7a565b5b6000612ad485828601611fcd565b9250506020612ae585828601612a9a565b9150509250929050565b60008060408385031215612b0657612b05611f7a565b5b6000612b1485828601611fcd565b9250506020612b2585828601611fcd565b9150509250929050565b600080600080600060a08688031215612b4b57612b4a611f7a565b5b6000612b5988828901611fcd565b9550506020612b6a88828901611fcd565b9450506040612b7b88828901612003565b9350506060612b8c88828901612003565b925050608086013567ffffffffffffffff811115612bad57612bac611f7f565b5b612bb9888289016124d5565b9150509295509295909350565b600080600060608486031215612bdf57612bde611f7a565b5b6000612bed86828701611fcd565b9350506020612bfe86828701612003565b9250506040612c0f86828701612003565b9150509250925092565b7f4e487b7100000000000000000000000000000000000000000000000000000000600052602260045260246000fd5b60006002820490506001821680612c6057607f821691505b602082108103612c7357612c72612c19565b5b50919050565b7f4a756e6f437265775342543a20536f756c626f756e6420746f6b656e2063616e60008201527f6e6f74206265207472616e736665727265640000000000000000000000000000602082015250565b6000612cd5603283612304565b9150612ce082612c79565b604082019050919050565b60006020820190508181036000830152612d0481612cc8565b9050919050565b6000604082019050612d206000830185612058565b612d2d6020830184612058565b9392505050565b7f4e487b7100000000000000000000000000000000000000000000000000000000600052603260045260246000fd5b7f4e487b7100000000000000000000000000000000000000000000000000000000600052601160045260246000fd5b6000612d9d82611fe2565b91507fffffffffffffffffffffffffffffffffffffffffffffffffffffffffffffffff8203612dcf57612dce612d63565b5b600182019050919050565b612de381611fa4565b82525050565b6000604082019050612dfe6000830185612dda565b612e0b6020830184612dda565b9392505050565b60008190508160005260206000209050919050565b60006020601f8301049050919050565b600082821b905092915050565b600060088302612e747fffffffffffffffffffffffffffffffffffffffffffffffffffffffffffffffff82612e37565b612e7e8683612e37565b95508019841693508086168417925050509392505050565b6000819050919050565b6000612ebb612eb6612eb184611fe2565b612e96565b611fe2565b9050919050565b6000819050919050565b612ed583612ea0565b612ee9612ee182612ec2565b848454612e44565b825550505050565b600090565b612efe612ef1565b612f09818484612ecc565b505050565b5b81811015612f2d57612f22600082612ef6565b600181019050612f0f565b5050565b601f821115612f7257612f4381612e12565b612f4c84612e27565b81016020851015612f5b578190505b612f6f612f6785612e27565b830182612f0e565b50505b505050565b600082821c905092915050565b6000612f9560001984600802612f77565b1980831691505092915050565b6000612fae8383612f84565b9150826002028217905092915050565b612fc7826122f9565b67ffffffffffffffff811115612fe057612fdf612158565b5b612fea8254612c48565b612ff5828285612f31565b600060209050601f8311600181146130285760008415613016578287015190505b6130208582612fa2565b865550613088565b601f19841661303686612e12565b60005b8281101561305e57848901518255600182019150602085019450602081019050613039565b8683101561307b5784890151613077601f891682612f84565b8355505b6001600288020188555050505b505050505050565b60006020820190506130a56000830184612dda565b92915050565b60006040820190506130c06000830185612dda565b6130cd6020830184612621565b9392505050565b60006080820190506130e96000830187612dda565b6130f66020830186612058565b6131036040830185612058565b6131106060830184612058565b95945050505050565b600061312482611fe2565b915061312f83611fe2565b925082820190508082111561314757613146612d63565b5b92915050565b6000604082019050818103600083015261316781856128f5565b9050818103602083015261317b81846128f5565b90509392505050565b600081519050919050565b600082825260208201905092915050565b60006131ab82613184565b6131b5818561318f565b93506131c5818560208601612315565b6131ce81612147565b840191505092915050565b600060a0820190506131ee6000830188612dda565b6131fb6020830187612dda565b6132086040830186612058565b6132156060830185612058565b818103608083015261322781846131a0565b90509695505050505050565b600081519050613242816120ae565b92915050565b60006020828403121561325e5761325d611f7a565b5b600061326c84828501613233565b91505092915050565b600060a08201905061328a6000830188612dda565b6132976020830187612dda565b81810360408301526132a981866128f5565b905081810360608301526132bd81856128f5565b905081810360808301526132d181846131a0565b9050969550505050505056fea2646970667358221220d480f6971641aa9d1a04b103e470bd01b8b7a6e1d3d67f2cf879546f4c08866864736f6c63430008140033",
  "linkReferences": {},
  "deployedLinkReferences": {}
}